{
  "_format": "hh-sol-artifact-1",
  "contractName": "FarmerRegistry",
  "sourceName": "contracts/contracts/FarmerRegistry.sol",
  "abi": [
    {
      "anonymous": false,
      "inputs": [
        {
          "indexed": true,
          "internalType": "address",
          "name": "farmer",
          "type": "address"
        },
        {
          "indexed": false,
          "internalType": "uint8",
          "name": "newRating",
          "type": "uint8"
        }
      ],
      "name": "FarmerRated",
      "type": "event"
    },
    {
      "anonymous": false,
      "inputs": [
        {
          "indexed": true,
          "internalType": "address",
          "name": "farmer",
          "type": "address"
        },
        {
          "indexed": false,
          "internalType": "string",
          "name": "name",
          "type": "string"
        }
      ],
      "name": "FarmerRegistered",
      "type": "event"
    },
    {
      "inputs": [
        {
          "internalType": "address",
          "name": "",
          "type": "address"
        }
      ],
      "name": "farmers",
      "outputs": [
        {
          "internalType": "string",
          "name": "name",
          "type": "string"
        },
        {
          "internalType": "string",
          "name": "location",
          "type": "string"
        },
        {
          "internalType": "uint8",
          "name": "rating",
          "type": "uint8"
        },
        {
          "internalType": "uint256",
          "name": "ratingCount",
          "type": "uint256"
        },
        {
          "internalType": "bool",
          "name": "isRegistered",
          "type": "bool"
        }
      ],
      "stateMutability": "view",
      "type": "function"
    },
    {
      "inputs": [
        {
          "internalType": "address",
          "name": "farmerAddress",
          "type": "address"
        }
      ],
      "name": "getFarmer",
      "outputs": [
        {
          "components": [
            {
              "internalType": "string",
              "name": "name",
              "type": "string"
            },
            {
              "internalType": "string",
              "name": "location",
              "type": "string"
            },
            {
              "internalType": "uint8",
              "name": "rating",
              "type": "uint8"
            },
            {
              "internalType": "uint256",
              "name": "ratingCount",
              "type": "uint256"
            },
            {
              "internalType": "bool",
              "name": "isRegistered",
              "type": "bool"
            }
          ],
          "internalType": "struct FarmerRegistry.Farmer",
          "name": "",
          "type": "tuple"
        }
      ],
      "stateMutability": "view",
      "type": "function"
    },
    {
      "inputs": [
        {
          "internalType": "address",
          "name": "farmerAddress",
          "type": "address"
        },
        {
          "internalType": "uint8",
          "name": "rating",
          "type": "uint8"
        }
      ],
      "name": "rateFarmer",
      "outputs": [],
      "stateMutability": "nonpayable",
      "type": "function"
    },
    {
      "inputs": [
        {
          "internalType": "string",
          "name": "name",
          "type": "string"
        },
        {
          "internalType": "string",
          "name": "location",
          "type": "string"
        }
      ],
      "name": "registerFarmer",
      "outputs": [],
      "stateMutability": "nonpayable",
      "type": "function"
    }
  ],
  "bytecode": "0x6080604052348015600f57600080fd5b506112f58061001f6000396000f3fe608060405234801561001057600080fd5b506004361061004c5760003560e01c8063314596b214610051578063401b21681461006d578063b400c7af146100a1578063e7609c16146100bd575b600080fd5b61006b6004803603810190610066919061095e565b6100ed565b005b61008760048036038101906100829190610a34565b6102b5565b604051610098959493929190610b30565b60405180910390f35b6100bb60048036038101906100b69190610bbd565b610415565b005b6100d760048036038101906100d29190610a34565b610612565b6040516100e49190610cf1565b60405180910390f35b6000803373ffffffffffffffffffffffffffffffffffffffff1673ffffffffffffffffffffffffffffffffffffffff16815260200190815260200160002060040160009054906101000a900460ff161561017c576040517f08c379a000000000000000000000000000000000000000000000000000000000815260040161017390610d5f565b60405180910390fd5b6040518060a00160405280838152602001828152602001600060ff16815260200160008152602001600115158152506000803373ffffffffffffffffffffffffffffffffffffffff1673ffffffffffffffffffffffffffffffffffffffff16815260200190815260200160002060008201518160000190816101fe9190610f8b565b5060208201518160010190816102149190610f8b565b5060408201518160020160006101000a81548160ff021916908360ff1602179055506060820151816003015560808201518160040160006101000a81548160ff0219169083151502179055509050503373ffffffffffffffffffffffffffffffffffffffff167f42558426a946ab6e527d7f548e7bd3e34c2a7ddde555007464cdfbb5f58665f8836040516102a9919061105d565b60405180910390a25050565b60006020528060005260406000206000915090508060000180546102d890610dae565b80601f016020809104026020016040519081016040528092919081815260200182805461030490610dae565b80156103515780601f1061032657610100808354040283529160200191610351565b820191906000526020600020905b81548152906001019060200180831161033457829003601f168201915b50505050509080600101805461036690610dae565b80601f016020809104026020016040519081016040528092919081815260200182805461039290610dae565b80156103df5780601f106103b4576101008083540402835291602001916103df565b820191906000526020600020905b8154815290600101906020018083116103c257829003601f168201915b5050505050908060020160009054906101000a900460ff16908060030154908060040160009054906101000a900460ff16905085565b6000808373ffffffffffffffffffffffffffffffffffffffff1673ffffffffffffffffffffffffffffffffffffffff16815260200190815260200160002060040160009054906101000a900460ff166104a3576040517f08c379a000000000000000000000000000000000000000000000000000000000815260040161049a906110cb565b60405180910390fd5b60018160ff16101580156104bb575060058160ff1611155b6104fa576040517f08c379a00000000000000000000000000000000000000000000000000000000081526004016104f190611137565b60405180910390fd5b60008060008473ffffffffffffffffffffffffffffffffffffffff1673ffffffffffffffffffffffffffffffffffffffff16815260200190815260200160002090506001816003015461054d9190611186565b8260ff1682600301548360020160009054906101000a900460ff1660ff1661057591906111ba565b61057f9190611186565b610589919061122b565b8160020160006101000a81548160ff021916908360ff1602179055508060030160008154809291906105ba9061125c565b91905055508273ffffffffffffffffffffffffffffffffffffffff167fc12312c3497f39a89a85f7d29a538404d2b674a7d01cc92235ce83d239a60c468360405161060591906112a4565b60405180910390a2505050565b61061a6107d0565b6000808373ffffffffffffffffffffffffffffffffffffffff1673ffffffffffffffffffffffffffffffffffffffff1681526020019081526020016000206040518060a001604052908160008201805461067390610dae565b80601f016020809104026020016040519081016040528092919081815260200182805461069f90610dae565b80156106ec5780601f106106c1576101008083540402835291602001916106ec565b820191906000526020600020905b8154815290600101906020018083116106cf57829003601f168201915b5050505050815260200160018201805461070590610dae565b80601f016020809104026020016040519081016040528092919081815260200182805461073190610dae565b801561077e5780601f106107535761010080835404028352916020019161077e565b820191906000526020600020905b81548152906001019060200180831161076157829003601f168201915b505050505081526020016002820160009054906101000a900460ff1660ff1660ff168152602001600382015481526020016004820160009054906101000a900460ff1615151515815250509050919050565b6040518060a001604052806060815260200160608152602001600060ff168152602001600081526020016000151581525090565b6000604051905090565b600080fd5b600080fd5b600080fd5b600080fd5b6000601f19601f8301169050919050565b7f4e487b7100000000000000000000000000000000000000000000000000000000600052604160045260246000fd5b61086b82610822565b810181811067ffffffffffffffff8211171561088a57610889610833565b5b80604052505050565b600061089d610804565b90506108a98282610862565b919050565b600067ffffffffffffffff8211156108c9576108c8610833565b5b6108d282610822565b9050602081019050919050565b82818337600083830152505050565b60006109016108fc846108ae565b610893565b90508281526020810184848401111561091d5761091c61081d565b5b6109288482856108df565b509392505050565b600082601f83011261094557610944610818565b5b81356109558482602086016108ee565b91505092915050565b600080604083850312156109755761097461080e565b5b600083013567ffffffffffffffff81111561099357610992610813565b5b61099f85828601610930565b925050602083013567ffffffffffffffff8111156109c0576109bf610813565b5b6109cc85828601610930565b9150509250929050565b600073ffffffffffffffffffffffffffffffffffffffff82169050919050565b6000610a01826109d6565b9050919050565b610a11816109f6565b8114610a1c57600080fd5b50565b600081359050610a2e81610a08565b92915050565b600060208284031215610a4a57610a4961080e565b5b6000610a5884828501610a1f565b91505092915050565b600081519050919050565b600082825260208201905092915050565b60005b83811015610a9b578082015181840152602081019050610a80565b60008484015250505050565b6000610ab282610a61565b610abc8185610a6c565b9350610acc818560208601610a7d565b610ad581610822565b840191505092915050565b600060ff82169050919050565b610af681610ae0565b82525050565b6000819050919050565b610b0f81610afc565b82525050565b60008115159050919050565b610b2a81610b15565b82525050565b600060a0820190508181036000830152610b4a8188610aa7565b90508181036020830152610b5e8187610aa7565b9050610b6d6040830186610aed565b610b7a6060830185610b06565b610b876080830184610b21565b9695505050505050565b610b9a81610ae0565b8114610ba557600080fd5b50565b600081359050610bb781610b91565b92915050565b60008060408385031215610bd457610bd361080e565b5b6000610be285828601610a1f565b9250506020610bf385828601610ba8565b9150509250929050565b600082825260208201905092915050565b6000610c1982610a61565b610c238185610bfd565b9350610c33818560208601610a7d565b610c3c81610822565b840191505092915050565b610c5081610ae0565b82525050565b610c5f81610afc565b82525050565b610c6e81610b15565b82525050565b600060a0830160008301518482036000860152610c918282610c0e565b91505060208301518482036020860152610cab8282610c0e565b9150506040830151610cc06040860182610c47565b506060830151610cd36060860182610c56565b506080830151610ce66080860182610c65565b508091505092915050565b60006020820190508181036000830152610d0b8184610c74565b905092915050565b7f416c726561647920726567697374657265640000000000000000000000000000600082015250565b6000610d49601283610a6c565b9150610d5482610d13565b602082019050919050565b60006020820190508181036000830152610d7881610d3c565b9050919050565b7f4e487b7100000000000000000000000000000000000000000000000000000000600052602260045260246000fd5b60006002820490506001821680610dc657607f821691505b602082108103610dd957610dd8610d7f565b5b50919050565b60008190508160005260206000209050919050565b60006020601f8301049050919050565b600082821b905092915050565b600060088302610e417fffffffffffffffffffffffffffffffffffffffffffffffffffffffffffffffff82610e04565b610e4b8683610e04565b95508019841693508086168417925050509392505050565b6000819050919050565b6000610e88610e83610e7e84610afc565b610e63565b610afc565b9050919050565b6000819050919050565b610ea283610e6d565b610eb6610eae82610e8f565b848454610e11565b825550505050565b600090565b610ecb610ebe565b610ed6818484610e99565b505050565b5b81811015610efa57610eef600082610ec3565b600181019050610edc565b5050565b601f821115610f3f57610f1081610ddf565b610f1984610df4565b81016020851015610f28578190505b610f3c610f3485610df4565b830182610edb565b50505b505050565b600082821c905092915050565b6000610f6260001984600802610f44565b1980831691505092915050565b6000610f7b8383610f51565b9150826002028217905092915050565b610f9482610a61565b67ffffffffffffffff811115610fad57610fac610833565b5b610fb78254610dae565b610fc2828285610efe565b600060209050601f831160018114610ff55760008415610fe3578287015190505b610fed8582610f6f565b865550611055565b601f19841661100386610ddf565b60005b8281101561102b57848901518255600182019150602085019450602081019050611006565b868310156110485784890151611044601f891682610f51565b8355505b6001600288020188555050505b505050505050565b600060208201905081810360008301526110778184610aa7565b905092915050565b7f4661726d6572206e6f7420666f756e6400000000000000000000000000000000600082015250565b60006110b5601083610a6c565b91506110c08261107f565b602082019050919050565b600060208201905081810360008301526110e4816110a8565b9050919050565b7f526174696e67206d757374206265203120746f20350000000000000000000000600082015250565b6000611121601583610a6c565b915061112c826110eb565b602082019050919050565b6000602082019050818103600083015261115081611114565b9050919050565b7f4e487b7100000000000000000000000000000000000000000000000000000000600052601160045260246000fd5b600061119182610afc565b915061119c83610afc565b92508282019050808211156111b4576111b3611157565b5b92915050565b60006111c582610afc565b91506111d083610afc565b92508282026111de81610afc565b915082820484148315176111f5576111f4611157565b5b5092915050565b7f4e487b7100000000000000000000000000000000000000000000000000000000600052601260045260246000fd5b600061123682610afc565b915061124183610afc565b925082611251576112506111fc565b5b828204905092915050565b600061126782610afc565b91507fffffffffffffffffffffffffffffffffffffffffffffffffffffffffffffffff820361129957611298611157565b5b600182019050919050565b60006020820190506112b96000830184610aed565b9291505056fea26469706673582212206ba4b6cbe5172e200f1313b37c75d6876e0f373bf1a3ed96ceacd5c05703899464736f6c634300081c0033",
  "linkReferences": {},
  "deployedLinkReferences": {}
}