{
  "_format": "hh-sol-artifact-1",
  "contractName": "FarmerMarket",
  "sourceName": "contracts/contracts/FarmerMarket.sol",
  "abi": [
    {
      "anonymous": false,
      "inputs": [
        {
          "indexed": true,
          "internalType": "address",
          "name": "buyer",
          "type": "address"
        },
        {
          "indexed": false,
          "internalType": "string",
          "name": "item",
          "type": "string"
        },
        {
          "indexed": false,
          "internalType": "uint256",
          "name": "quantity",
          "type": "uint256"
        },
        {
          "indexed": false,
          "internalType": "uint256",
          "name": "pricePerKg",
          "type": "uint256"
        }
      ],
      "name": "BuyerRegistered",
      "type": "event"
    },
    {
      "anonymous": false,
      "inputs": [
        {
          "indexed": true,
          "internalType": "address",
          "name": "farmer",
          "type": "address"
        },
        {
          "indexed": false,
          "internalType": "string",
          "name": "item",
          "type": "string"
        },
        {
          "indexed": false,
          "internalType": "uint256",
          "name": "quantity",
          "type": "uint256"
        },
        {
          "indexed": false,
          "internalType": "uint256",
          "name": "pricePerKg",
          "type": "uint256"
        }
      ],
      "name": "ListingRegistered",
      "type": "event"
    },
    {
      "inputs": [],
      "name": "getBuyers",
      "outputs": [
        {
          "components": [
            {
              "internalType": "address",
              "name": "buyer",
              "type": "address"
            },
            {
              "internalType": "string",
              "name": "name",
              "type": "string"
            },
            {
              "internalType": "string",
              "name": "item",
              "type": "string"
            },
            {
              "internalType": "uint256",
              "name": "quantity",
              "type": "uint256"
            },
            {
              "internalType": "uint256",
              "name": "pricePerKg",
              "type": "uint256"
            }
          ],
          "internalType": "struct FarmerMarket.BuyerRequest[]",
          "name": "",
          "type": "tuple[]"
        }
      ],
      "stateMutability": "view",
      "type": "function"
    },
    {
      "inputs": [],
      "name": "getListings",
      "outputs": [
        {
          "components": [
            {
              "internalType": "address",
              "name": "farmer",
              "type": "address"
            },
            {
              "internalType": "string",
              "name": "name",
              "type": "string"
            },
            {
              "internalType": "string",
              "name": "item",
              "type": "string"
            },
            {
              "internalType": "uint256",
              "name": "quantity",
              "type": "uint256"
            },
            {
              "internalType": "uint256",
              "name": "pricePerKg",
              "type": "uint256"
            }
          ],
          "internalType": "struct FarmerMarket.Listing[]",
          "name": "",
          "type": "tuple[]"
        }
      ],
      "stateMutability": "view",
      "type": "function"
    },
    {
      "inputs": [
        {
          "internalType": "string",
          "name": "item",
          "type": "string"
        },
        {
          "internalType": "uint256",
          "name": "quantity",
          "type": "uint256"
        },
        {
          "internalType": "uint256",
          "name": "minPrice",
          "type": "uint256"
        }
      ],
      "name": "getMatchingBuyer",
      "outputs": [
        {
          "components": [
            {
              "internalType": "address",
              "name": "buyer",
              "type": "address"
            },
            {
              "internalType": "string",
              "name": "name",
              "type": "string"
            },
            {
              "internalType": "string",
              "name": "item",
              "type": "string"
            },
            {
              "internalType": "uint256",
              "name": "quantity",
              "type": "uint256"
            },
            {
              "internalType": "uint256",
              "name": "pricePerKg",
              "type": "uint256"
            }
          ],
          "internalType": "struct FarmerMarket.BuyerRequest",
          "name": "",
          "type": "tuple"
        }
      ],
      "stateMutability": "view",
      "type": "function"
    },
    {
      "inputs": [
        {
          "internalType": "string",
          "name": "item",
          "type": "string"
        },
        {
          "internalType": "uint256",
          "name": "quantity",
          "type": "uint256"
        },
        {
          "internalType": "uint256",
          "name": "maxPrice",
          "type": "uint256"
        }
      ],
      "name": "getMatchingListing",
      "outputs": [
        {
          "components": [
            {
              "internalType": "address",
              "name": "farmer",
              "type": "address"
            },
            {
              "internalType": "string",
              "name": "name",
              "type": "string"
            },
            {
              "internalType": "string",
              "name": "item",
              "type": "string"
            },
            {
              "internalType": "uint256",
              "name": "quantity",
              "type": "uint256"
            },
            {
              "internalType": "uint256",
              "name": "pricePerKg",
              "type": "uint256"
            }
          ],
          "internalType": "struct FarmerMarket.Listing",
          "name": "",
          "type": "tuple"
        }
      ],
      "stateMutability": "view",
      "type": "function"
    },
    {
      "inputs": [
        {
          "internalType": "string",
          "name": "name",
          "type": "string"
        },
        {
          "internalType": "string",
          "name": "item",
          "type": "string"
        },
        {
          "internalType": "uint256",
          "name": "quantity",
          "type": "uint256"
        },
        {
          "internalType": "uint256",
          "name": "pricePerKg",
          "type": "uint256"
        }
      ],
      "name": "registerBuyer",
      "outputs": [],
      "stateMutability": "nonpayable",
      "type": "function"
    },
    {
      "inputs": [
        {
          "internalType": "string",
          "name": "name",
          "type": "string"
        },
        {
          "internalType": "string",
          "name": "item",
          "type": "string"
        },
        {
          "internalType": "uint256",
          "name": "quantity",
          "type": "uint256"
        },
        {
          "internalType": "uint256",
          "name": "pricePerKg",
          "type": "uint256"
        }
      ],
      "name": "registerListing",
      "outputs": [],
      "stateMutability": "nonpayable",
      "type": "function"
    }
  ],
  "bytecode": "0x6080604052348015600f57600080fd5b50611a288061001f6000396000f3fe608060405234801561001057600080fd5b50600436106100625760003560e01c80636b1d93a4146100675780639a9fe8fe14610083578063c556e8d1146100b3578063f1b2d6a3146100e3578063f5f8a30214610101578063f64bfaba1461011d575b600080fd5b610081600480360381019061007c9190610fb7565b61013b565b005b61009d60048036038101906100989190611056565b610284565b6040516100aa9190611211565b60405180910390f35b6100cd60048036038101906100c89190611056565b61057f565b6040516100da91906112b0565b60405180910390f35b6100eb61087a565b6040516100f89190611411565b60405180910390f35b61011b60048036038101906101169190610fb7565b610a67565b005b610125610bb0565b6040516101329190611572565b60405180910390f35b60006040518060a001604052803373ffffffffffffffffffffffffffffffffffffffff16815260200186815260200185815260200184815260200183815250908060018154018082558091505060019003906000526020600020906005020160009091909190915060008201518160000160006101000a81548173ffffffffffffffffffffffffffffffffffffffff021916908373ffffffffffffffffffffffffffffffffffffffff16021790555060208201518160010190816101ff91906117a0565b50604082015181600201908161021591906117a0565b50606082015181600301556080820151816004015550503373ffffffffffffffffffffffffffffffffffffffff167f2899a2ecf46f2b05977a49b73e91787ef66b71c0be05219bf8ef8f19926ecf87848484604051610276939291906118cb565b60405180910390a250505050565b61028c610d9d565b60005b600180549050811015610516578480519060200120600182815481106102b8576102b7611909565b5b90600052602060002090600502016002016040516102d691906119db565b6040518091039020148015610310575083600182815481106102fb576102fa611909565b5b90600052602060002090600502016003015410155b80156103415750826001828154811061032c5761032b611909565b5b90600052602060002090600502016004015410155b15610509576001818154811061035a57610359611909565b5b90600052602060002090600502016040518060a00160405290816000820160009054906101000a900473ffffffffffffffffffffffffffffffffffffffff1673ffffffffffffffffffffffffffffffffffffffff1673ffffffffffffffffffffffffffffffffffffffff1681526020016001820180546103d9906115c3565b80601f0160208091040260200160405190810160405280929190818152602001828054610405906115c3565b80156104525780601f1061042757610100808354040283529160200191610452565b820191906000526020600020905b81548152906001019060200180831161043557829003601f168201915b5050505050815260200160028201805461046b906115c3565b80601f0160208091040260200160405190810160405280929190818152602001828054610497906115c3565b80156104e45780601f106104b9576101008083540402835291602001916104e4565b820191906000526020600020905b8154815290600101906020018083116104c757829003601f168201915b5050505050815260200160038201548152602001600482015481525050915050610578565b808060010191505061028f565b506040518060a00160405280600073ffffffffffffffffffffffffffffffffffffffff16815260200160405180602001604052806000815250815260200160405180602001604052806000815250815260200160008152602001600081525090505b9392505050565b610587610de2565b60005b600080549050811015610811578480519060200120600082815481106105b3576105b2611909565b5b90600052602060002090600502016002016040516105d191906119db565b604051809103902014801561060b575083600082815481106105f6576105f5611909565b5b90600052602060002090600502016003015410155b801561063c5750826000828154811061062757610626611909565b5b90600052602060002090600502016004015411155b15610804576000818154811061065557610654611909565b5b90600052602060002090600502016040518060a00160405290816000820160009054906101000a900473ffffffffffffffffffffffffffffffffffffffff1673ffffffffffffffffffffffffffffffffffffffff1673ffffffffffffffffffffffffffffffffffffffff1681526020016001820180546106d4906115c3565b80601f0160208091040260200160405190810160405280929190818152602001828054610700906115c3565b801561074d5780601f106107225761010080835404028352916020019161074d565b820191906000526020600020905b81548152906001019060200180831161073057829003601f168201915b50505050508152602001600282018054610766906115c3565b80601f0160208091040260200160405190810160405280929190818152602001828054610792906115c3565b80156107df5780601f106107b4576101008083540402835291602001916107df565b820191906000526020600020905b8154815290600101906020018083116107c257829003601f168201915b5050505050815260200160038201548152602001600482015481525050915050610873565b808060010191505061058a565b506040518060a00160405280600073ffffffffffffffffffffffffffffffffffffffff16815260200160405180602001604052806000815250815260200160405180602001604052806000815250815260200160008152602001600081525090505b9392505050565b60606000805480602002602001604051908101604052809291908181526020016000905b82821015610a5e57838290600052602060002090600502016040518060a00160405290816000820160009054906101000a900473ffffffffffffffffffffffffffffffffffffffff1673ffffffffffffffffffffffffffffffffffffffff1673ffffffffffffffffffffffffffffffffffffffff168152602001600182018054610927906115c3565b80601f0160208091040260200160405190810160405280929190818152602001828054610953906115c3565b80156109a05780601f10610975576101008083540402835291602001916109a0565b820191906000526020600020905b81548152906001019060200180831161098357829003601f168201915b505050505081526020016002820180546109b9906115c3565b80601f01602080910402602001604051908101604052809291908181526020018280546109e5906115c3565b8015610a325780601f10610a0757610100808354040283529160200191610a32565b820191906000526020600020905b815481529060010190602001808311610a1557829003601f168201915b50505050508152602001600382015481526020016004820154815250508152602001906001019061089e565b50505050905090565b60016040518060a001604052803373ffffffffffffffffffffffffffffffffffffffff16815260200186815260200185815260200184815260200183815250908060018154018082558091505060019003906000526020600020906005020160009091909190915060008201518160000160006101000a81548173ffffffffffffffffffffffffffffffffffffffff021916908373ffffffffffffffffffffffffffffffffffffffff1602179055506020820151816001019081610b2b91906117a0565b506040820151816002019081610b4191906117a0565b50606082015181600301556080820151816004015550503373ffffffffffffffffffffffffffffffffffffffff167f39ba3a5e788da1d4e0c6d92f7c286ddabd0b105c0f8fb4b39fac8304ec50eea4848484604051610ba2939291906118cb565b60405180910390a250505050565b60606001805480602002602001604051908101604052809291908181526020016000905b82821015610d9457838290600052602060002090600502016040518060a00160405290816000820160009054906101000a900473ffffffffffffffffffffffffffffffffffffffff1673ffffffffffffffffffffffffffffffffffffffff1673ffffffffffffffffffffffffffffffffffffffff168152602001600182018054610c5d906115c3565b80601f0160208091040260200160405190810160405280929190818152602001828054610c89906115c3565b8015610cd65780601f10610cab57610100808354040283529160200191610cd6565b820191906000526020600020905b815481529060010190602001808311610cb957829003601f168201915b50505050508152602001600282018054610cef906115c3565b80601f0160208091040260200160405190810160405280929190818152602001828054610d1b906115c3565b8015610d685780601f10610d3d57610100808354040283529160200191610d68565b820191906000526020600020905b815481529060010190602001808311610d4b57829003601f168201915b505050505081526020016003820154815260200160048201548152505081526020019060010190610bd4565b50505050905090565b6040518060a00160405280600073ffffffffffffffffffffffffffffffffffffffff168152602001606081526020016060815260200160008152602001600081525090565b6040518060a00160405280600073ffffffffffffffffffffffffffffffffffffffff168152602001606081526020016060815260200160008152602001600081525090565b6000604051905090565b600080fd5b600080fd5b600080fd5b600080fd5b6000601f19601f8301169050919050565b7f4e487b7100000000000000000000000000000000000000000000000000000000600052604160045260246000fd5b610e8e82610e45565b810181811067ffffffffffffffff82111715610ead57610eac610e56565b5b80604052505050565b6000610ec0610e27565b9050610ecc8282610e85565b919050565b600067ffffffffffffffff821115610eec57610eeb610e56565b5b610ef582610e45565b9050602081019050919050565b82818337600083830152505050565b6000610f24610f1f84610ed1565b610eb6565b905082815260208101848484011115610f4057610f3f610e40565b5b610f4b848285610f02565b509392505050565b600082601f830112610f6857610f67610e3b565b5b8135610f78848260208601610f11565b91505092915050565b6000819050919050565b610f9481610f81565b8114610f9f57600080fd5b50565b600081359050610fb181610f8b565b92915050565b60008060008060808587031215610fd157610fd0610e31565b5b600085013567ffffffffffffffff811115610fef57610fee610e36565b5b610ffb87828801610f53565b945050602085013567ffffffffffffffff81111561101c5761101b610e36565b5b61102887828801610f53565b935050604061103987828801610fa2565b925050606061104a87828801610fa2565b91505092959194509250565b60008060006060848603121561106f5761106e610e31565b5b600084013567ffffffffffffffff81111561108d5761108c610e36565b5b61109986828701610f53565b93505060206110aa86828701610fa2565b92505060406110bb86828701610fa2565b9150509250925092565b600073ffffffffffffffffffffffffffffffffffffffff82169050919050565b60006110f0826110c5565b9050919050565b611100816110e5565b82525050565b600081519050919050565b600082825260208201905092915050565b60005b83811015611140578082015181840152602081019050611125565b60008484015250505050565b600061115782611106565b6111618185611111565b9350611171818560208601611122565b61117a81610e45565b840191505092915050565b61118e81610f81565b82525050565b600060a0830160008301516111ac60008601826110f7565b50602083015184820360208601526111c4828261114c565b915050604083015184820360408601526111de828261114c565b91505060608301516111f36060860182611185565b5060808301516112066080860182611185565b508091505092915050565b6000602082019050818103600083015261122b8184611194565b905092915050565b600060a08301600083015161124b60008601826110f7565b5060208301518482036020860152611263828261114c565b9150506040830151848203604086015261127d828261114c565b91505060608301516112926060860182611185565b5060808301516112a56080860182611185565b508091505092915050565b600060208201905081810360008301526112ca8184611233565b905092915050565b600081519050919050565b600082825260208201905092915050565b6000819050602082019050919050565b600060a08301600083015161131660008601826110f7565b506020830151848203602086015261132e828261114c565b91505060408301518482036040860152611348828261114c565b915050606083015161135d6060860182611185565b5060808301516113706080860182611185565b508091505092915050565b600061138783836112fe565b905092915050565b6000602082019050919050565b60006113a7826112d2565b6113b181856112dd565b9350836020820285016113c3856112ee565b8060005b858110156113ff57848403895281516113e0858261137b565b94506113eb8361138f565b925060208a019950506001810190506113c7565b50829750879550505050505092915050565b6000602082019050818103600083015261142b818461139c565b905092915050565b600081519050919050565b600082825260208201905092915050565b6000819050602082019050919050565b600060a08301600083015161147760008601826110f7565b506020830151848203602086015261148f828261114c565b915050604083015184820360408601526114a9828261114c565b91505060608301516114be6060860182611185565b5060808301516114d16080860182611185565b508091505092915050565b60006114e8838361145f565b905092915050565b6000602082019050919050565b600061150882611433565b611512818561143e565b9350836020820285016115248561144f565b8060005b85811015611560578484038952815161154185826114dc565b945061154c836114f0565b925060208a01995050600181019050611528565b50829750879550505050505092915050565b6000602082019050818103600083015261158c81846114fd565b905092915050565b7f4e487b7100000000000000000000000000000000000000000000000000000000600052602260045260246000fd5b600060028204905060018216806115db57607f821691505b6020821081036115ee576115ed611594565b5b50919050565b60008190508160005260206000209050919050565b60006020601f8301049050919050565b600082821b905092915050565b6000600883026116567fffffffffffffffffffffffffffffffffffffffffffffffffffffffffffffffff82611619565b6116608683611619565b95508019841693508086168417925050509392505050565b6000819050919050565b600061169d61169861169384610f81565b611678565b610f81565b9050919050565b6000819050919050565b6116b783611682565b6116cb6116c3826116a4565b848454611626565b825550505050565b600090565b6116e06116d3565b6116eb8184846116ae565b505050565b5b8181101561170f576117046000826116d8565b6001810190506116f1565b5050565b601f82111561175457611725816115f4565b61172e84611609565b8101602085101561173d578190505b61175161174985611609565b8301826116f0565b50505b505050565b600082821c905092915050565b600061177760001984600802611759565b1980831691505092915050565b60006117908383611766565b9150826002028217905092915050565b6117a982611106565b67ffffffffffffffff8111156117c2576117c1610e56565b5b6117cc82546115c3565b6117d7828285611713565b600060209050601f83116001811461180a57600084156117f8578287015190505b6118028582611784565b86555061186a565b601f198416611818866115f4565b60005b828110156118405784890151825560018201915060208501945060208101905061181b565b8683101561185d5784890151611859601f891682611766565b8355505b6001600288020188555050505b505050505050565b600082825260208201905092915050565b600061188e82611106565b6118988185611872565b93506118a8818560208601611122565b6118b181610e45565b840191505092915050565b6118c581610f81565b82525050565b600060608201905081810360008301526118e58186611883565b90506118f460208301856118bc565b61190160408301846118bc565b949350505050565b7f4e487b7100000000000000000000000000000000000000000000000000000000600052603260045260246000fd5b600081905092915050565b60008190508160005260206000209050919050565b60008154611965816115c3565b61196f8186611938565b9450600182166000811461198a576001811461199f576119d2565b60ff19831686528115158202860193506119d2565b6119a885611943565b60005b838110156119ca578154818901526001820191506020810190506119ab565b838801955050505b50505092915050565b60006119e78284611958565b91508190509291505056fea264697066735822122087830b99892ffdad8bde71c98b96053b6371c95dec459e6b2526922649bd67b464736f6c634300081c0033",
  "linkReferences": {},
  "deployedLinkReferences": {}
}