{
  "_format": "hh-sol-artifact-1",
  "contractName": "ProduceMarket",
  "sourceName": "contracts/contracts/ProduceMarket.sol",
  "abi": [
    {
      "anonymous": false,
      "inputs": [
        {
          "indexed": false,
          "internalType": "uint256",
          "name": "produceId",
          "type": "uint256"
        },
        {
          "indexed": true,
          "internalType": "address",
          "name": "buyer",
          "type": "address"
        }
      ],
      "name": "OfferAccepted",
      "type": "event"
    },
    {
      "anonymous": false,
      "inputs": [
        {
          "indexed": false,
          "internalType": "uint256",
          "name": "produceId",
          "type": "uint256"
        },
        {
          "indexed": true,
          "internalType": "address",
          "name": "buyer",
          "type": "address"
        },
        {
          "indexed": false,
          "internalType": "uint256",
          "name": "offer",
          "type": "uint256"
        }
      ],
      "name": "OfferPlaced",
      "type": "event"
    },
    {
      "anonymous": false,
      "inputs": [
        {
          "indexed": false,
          "internalType": "uint256",
          "name": "produceId",
          "type": "uint256"
        },
        {
          "indexed": true,
          "internalType": "address",
          "name": "farmer",
          "type": "address"
        }
      ],
      "name": "ProduceListed",
      "type": "event"
    },
    {
      "inputs": [
        {
          "internalType": "uint256",
          "name": "produceId",
          "type": "uint256"
        },
        {
          "internalType": "uint256",
          "name": "offerIndex",
          "type": "uint256"
        }
      ],
      "name": "acceptOffer",
      "outputs": [],
      "stateMutability": "nonpayable",
      "type": "function"
    },
    {
      "inputs": [
        {
          "internalType": "uint256",
          "name": "produceId",
          "type": "uint256"
        }
      ],
      "name": "getOffers",
      "outputs": [
        {
          "components": [
            {
              "internalType": "address",
              "name": "buyer",
              "type": "address"
            },
            {
              "internalType": "uint256",
              "name": "offeredPricePerUnit",
              "type": "uint256"
            },
            {
              "internalType": "bool",
              "name": "accepted",
              "type": "bool"
            }
          ],
          "internalType": "struct ProduceMarket.Offer[]",
          "name": "",
          "type": "tuple[]"
        }
      ],
      "stateMutability": "view",
      "type": "function"
    },
    {
      "inputs": [
        {
          "internalType": "string",
          "name": "name",
          "type": "string"
        },
        {
          "internalType": "string",
          "name": "category",
          "type": "string"
        },
        {
          "internalType": "uint256",
          "name": "quantity",
          "type": "uint256"
        },
        {
          "internalType": "uint256",
          "name": "basePricePerUnit",
          "type": "uint256"
        }
      ],
      "name": "listProduce",
      "outputs": [],
      "stateMutability": "nonpayable",
      "type": "function"
    },
    {
      "inputs": [
        {
          "internalType": "uint256",
          "name": "",
          "type": "uint256"
        },
        {
          "internalType": "uint256",
          "name": "",
          "type": "uint256"
        }
      ],
      "name": "offers",
      "outputs": [
        {
          "internalType": "address",
          "name": "buyer",
          "type": "address"
        },
        {
          "internalType": "uint256",
          "name": "offeredPricePerUnit",
          "type": "uint256"
        },
        {
          "internalType": "bool",
          "name": "accepted",
          "type": "bool"
        }
      ],
      "stateMutability": "view",
      "type": "function"
    },
    {
      "inputs": [
        {
          "internalType": "uint256",
          "name": "produceId",
          "type": "uint256"
        },
        {
          "internalType": "uint256",
          "name": "offeredPricePerUnit",
          "type": "uint256"
        }
      ],
      "name": "placeOffer",
      "outputs": [],
      "stateMutability": "nonpayable",
      "type": "function"
    },
    {
      "inputs": [],
      "name": "produceCounter",
      "outputs": [
        {
          "internalType": "uint256",
          "name": "",
          "type": "uint256"
        }
      ],
      "stateMutability": "view",
      "type": "function"
    },
    {
      "inputs": [
        {
          "internalType": "uint256",
          "name": "",
          "type": "uint256"
        }
      ],
      "name": "produces",
      "outputs": [
        {
          "internalType": "uint256",
          "name": "id",
          "type": "uint256"
        },
        {
          "internalType": "string",
          "name": "name",
          "type": "string"
        },
        {
          "internalType": "string",
          "name": "category",
          "type": "string"
        },
        {
          "internalType": "uint256",
          "name": "quantity",
          "type": "uint256"
        },
        {
          "internalType": "uint256",
          "name": "basePricePerUnit",
          "type": "uint256"
        },
        {
          "internalType": "address payable",
          "name": "farmer",
          "type": "address"
        },
        {
          "internalType": "bool",
          "name": "isSold",
          "type": "bool"
        }
      ],
      "stateMutability": "view",
      "type": "function"
    }
  ],
  "bytecode": "0x6080604052348015600f57600080fd5b506113e58061001f6000396000f3fe608060405234801561001057600080fd5b506004361061007d5760003560e01c806381257bd51161005b57806381257bd514610106578063a95902b214610122578063cd6d70441461013e578063dfa49e6f1461015c5761007d565b80631855d9c0146100825780634d03a9a51461009e57806356cd8306146100d0575b600080fd5b61009c60048036038101906100979190610b04565b61018c565b005b6100b860048036038101906100b39190610ba3565b61030f565b6040516100c793929190610c4e565b60405180910390f35b6100ea60048036038101906100e59190610c85565b610383565b6040516100fd9796959493929190610d52565b60405180910390f35b610120600480360381019061011b9190610ba3565b610502565b005b61013c60048036038101906101379190610ba3565b6106e6565b005b610146610881565b6040516101539190610dcf565b60405180910390f35b61017660048036038101906101719190610c85565b610887565b6040516101839190610f08565b60405180910390f35b60008081548092919061019e90610f59565b91905055506040518060e0016040528060005481526020018581526020018481526020018381526020018281526020013373ffffffffffffffffffffffffffffffffffffffff16815260200160001515815250600160008054815260200190815260200160002060008201518160000155602082015181600101908161022491906111ad565b50604082015181600201908161023a91906111ad565b50606082015181600301556080820151816004015560a08201518160050160006101000a81548173ffffffffffffffffffffffffffffffffffffffff021916908373ffffffffffffffffffffffffffffffffffffffff16021790555060c08201518160050160146101000a81548160ff0219169083151502179055509050503373ffffffffffffffffffffffffffffffffffffffff167f12f8fc653c52ed98b8299c5e4b8a664d82abe5b217b6e3ff14db4ad1578b39ac6000546040516103019190610dcf565b60405180910390a250505050565b6002602052816000526040600020818154811061032b57600080fd5b9060005260206000209060030201600091509150508060000160009054906101000a900473ffffffffffffffffffffffffffffffffffffffff16908060010154908060020160009054906101000a900460ff16905083565b60016020528060005260406000206000915090508060000154908060010180546103ac90610fd0565b80601f01602080910402602001604051908101604052809291908181526020018280546103d890610fd0565b80156104255780601f106103fa57610100808354040283529160200191610425565b820191906000526020600020905b81548152906001019060200180831161040857829003601f168201915b50505050509080600201805461043a90610fd0565b80601f016020809104026020016040519081016040528092919081815260200182805461046690610fd0565b80156104b35780601f10610488576101008083540402835291602001916104b3565b820191906000526020600020905b81548152906001019060200180831161049657829003601f168201915b5050505050908060030154908060040154908060050160009054906101000a900473ffffffffffffffffffffffffffffffffffffffff16908060050160149054906101000a900460ff16905087565b60006001600084815260200190815260200160002090508060050160009054906101000a900473ffffffffffffffffffffffffffffffffffffffff1673ffffffffffffffffffffffffffffffffffffffff163373ffffffffffffffffffffffffffffffffffffffff16146105ab576040517f08c379a00000000000000000000000000000000000000000000000000000000081526004016105a2906112cb565b60405180910390fd5b8060050160149054906101000a900460ff16156105fd576040517f08c379a00000000000000000000000000000000000000000000000000000000081526004016105f490611337565b60405180910390fd5b600060026000858152602001908152602001600020838154811061062457610623611357565b5b9060005260206000209060030201905060018160020160006101000a81548160ff02191690831515021790555060018260050160146101000a81548160ff0219169083151502179055508060000160009054906101000a900473ffffffffffffffffffffffffffffffffffffffff1673ffffffffffffffffffffffffffffffffffffffff167fa7a40af5a1d0c10a3eb94af90cb008170915e8a71a6aaff052794cd762c72fc0856040516106d89190610dcf565b60405180910390a250505050565b6001600083815260200190815260200160002060050160149054906101000a900460ff161561074a576040517f08c379a000000000000000000000000000000000000000000000000000000000815260040161074190611337565b60405180910390fd5b6002600083815260200190815260200160002060405180606001604052803373ffffffffffffffffffffffffffffffffffffffff16815260200183815260200160001515815250908060018154018082558091505060019003906000526020600020906003020160009091909190915060008201518160000160006101000a81548173ffffffffffffffffffffffffffffffffffffffff021916908373ffffffffffffffffffffffffffffffffffffffff1602179055506020820151816001015560408201518160020160006101000a81548160ff02191690831515021790555050503373ffffffffffffffffffffffffffffffffffffffff167fd294afec9d7ab02d1bc3b945a2e833190e9ac8c221c99a27a16afab5cf59e9288383604051610875929190611386565b60405180910390a25050565b60005481565b606060026000838152602001908152602001600020805480602002602001604051908101604052809291908181526020016000905b8282101561096957838290600052602060002090600302016040518060600160405290816000820160009054906101000a900473ffffffffffffffffffffffffffffffffffffffff1673ffffffffffffffffffffffffffffffffffffffff1673ffffffffffffffffffffffffffffffffffffffff168152602001600182015481526020016002820160009054906101000a900460ff161515151581525050815260200190600101906108bc565b505050509050919050565b6000604051905090565b600080fd5b600080fd5b600080fd5b600080fd5b6000601f19601f8301169050919050565b7f4e487b7100000000000000000000000000000000000000000000000000000000600052604160045260246000fd5b6109db82610992565b810181811067ffffffffffffffff821117156109fa576109f96109a3565b5b80604052505050565b6000610a0d610974565b9050610a1982826109d2565b919050565b600067ffffffffffffffff821115610a3957610a386109a3565b5b610a4282610992565b9050602081019050919050565b82818337600083830152505050565b6000610a71610a6c84610a1e565b610a03565b905082815260208101848484011115610a8d57610a8c61098d565b5b610a98848285610a4f565b509392505050565b600082601f830112610ab557610ab4610988565b5b8135610ac5848260208601610a5e565b91505092915050565b6000819050919050565b610ae181610ace565b8114610aec57600080fd5b50565b600081359050610afe81610ad8565b92915050565b60008060008060808587031215610b1e57610b1d61097e565b5b600085013567ffffffffffffffff811115610b3c57610b3b610983565b5b610b4887828801610aa0565b945050602085013567ffffffffffffffff811115610b6957610b68610983565b5b610b7587828801610aa0565b9350506040610b8687828801610aef565b9250506060610b9787828801610aef565b91505092959194509250565b60008060408385031215610bba57610bb961097e565b5b6000610bc885828601610aef565b9250506020610bd985828601610aef565b9150509250929050565b600073ffffffffffffffffffffffffffffffffffffffff82169050919050565b6000610c0e82610be3565b9050919050565b610c1e81610c03565b82525050565b610c2d81610ace565b82525050565b60008115159050919050565b610c4881610c33565b82525050565b6000606082019050610c636000830186610c15565b610c706020830185610c24565b610c7d6040830184610c3f565b949350505050565b600060208284031215610c9b57610c9a61097e565b5b6000610ca984828501610aef565b91505092915050565b600081519050919050565b600082825260208201905092915050565b60005b83811015610cec578082015181840152602081019050610cd1565b60008484015250505050565b6000610d0382610cb2565b610d0d8185610cbd565b9350610d1d818560208601610cce565b610d2681610992565b840191505092915050565b6000610d3c82610be3565b9050919050565b610d4c81610d31565b82525050565b600060e082019050610d67600083018a610c24565b8181036020830152610d798189610cf8565b90508181036040830152610d8d8188610cf8565b9050610d9c6060830187610c24565b610da96080830186610c24565b610db660a0830185610d43565b610dc360c0830184610c3f565b98975050505050505050565b6000602082019050610de46000830184610c24565b92915050565b600081519050919050565b600082825260208201905092915050565b6000819050602082019050919050565b610e1f81610c03565b82525050565b610e2e81610ace565b82525050565b610e3d81610c33565b82525050565b606082016000820151610e596000850182610e16565b506020820151610e6c6020850182610e25565b506040820151610e7f6040850182610e34565b50505050565b6000610e918383610e43565b60608301905092915050565b6000602082019050919050565b6000610eb582610dea565b610ebf8185610df5565b9350610eca83610e06565b8060005b83811015610efb578151610ee28882610e85565b9750610eed83610e9d565b925050600181019050610ece565b5085935050505092915050565b60006020820190508181036000830152610f228184610eaa565b905092915050565b7f4e487b7100000000000000000000000000000000000000000000000000000000600052601160045260246000fd5b6000610f6482610ace565b91507fffffffffffffffffffffffffffffffffffffffffffffffffffffffffffffffff8203610f9657610f95610f2a565b5b600182019050919050565b7f4e487b7100000000000000000000000000000000000000000000000000000000600052602260045260246000fd5b60006002820490506001821680610fe857607f821691505b602082108103610ffb57610ffa610fa1565b5b50919050565b60008190508160005260206000209050919050565b60006020601f8301049050919050565b600082821b905092915050565b6000600883026110637fffffffffffffffffffffffffffffffffffffffffffffffffffffffffffffffff82611026565b61106d8683611026565b95508019841693508086168417925050509392505050565b6000819050919050565b60006110aa6110a56110a084610ace565b611085565b610ace565b9050919050565b6000819050919050565b6110c48361108f565b6110d86110d0826110b1565b848454611033565b825550505050565b600090565b6110ed6110e0565b6110f88184846110bb565b505050565b5b8181101561111c576111116000826110e5565b6001810190506110fe565b5050565b601f8211156111615761113281611001565b61113b84611016565b8101602085101561114a578190505b61115e61115685611016565b8301826110fd565b50505b505050565b600082821c905092915050565b600061118460001984600802611166565b1980831691505092915050565b600061119d8383611173565b9150826002028217905092915050565b6111b682610cb2565b67ffffffffffffffff8111156111cf576111ce6109a3565b5b6111d98254610fd0565b6111e4828285611120565b600060209050601f8311600181146112175760008415611205578287015190505b61120f8582611191565b865550611277565b601f19841661122586611001565b60005b8281101561124d57848901518255600182019150602085019450602081019050611228565b8683101561126a5784890151611266601f891682611173565b8355505b6001600288020188555050505b505050505050565b7f4f6e6c79206661726d65722063616e2061636365707400000000000000000000600082015250565b60006112b5601683610cbd565b91506112c08261127f565b602082019050919050565b600060208201905081810360008301526112e4816112a8565b9050919050565b7f416c726561647920736f6c640000000000000000000000000000000000000000600082015250565b6000611321600c83610cbd565b915061132c826112eb565b602082019050919050565b6000602082019050818103600083015261135081611314565b9050919050565b7f4e487b7100000000000000000000000000000000000000000000000000000000600052603260045260246000fd5b600060408201905061139b6000830185610c24565b6113a86020830184610c24565b939250505056fea26469706673582212204b2e240d290ac12deda05f9204f7432f6af754877898630a3c0a11313d7ee4ef64736f6c634300081c0033",
  "linkReferences": {},
  "deployedLinkReferences": {}
}