{
  "_format": "hh-sol-artifact-1",
  "contractName": "Escrow",
  "sourceName": "contracts/contracts/Escrow.sol",
  "abi": [
    {
      "anonymous": false,
      "inputs": [
        {
          "indexed": false,
          "internalType": "uint256",
          "name": "dealId",
          "type": "uint256"
        }
      ],
      "name": "DealCompleted",
      "type": "event"
    },
    {
      "anonymous": false,
      "inputs": [
        {
          "indexed": false,
          "internalType": "uint256",
          "name": "dealId",
          "type": "uint256"
        },
        {
          "indexed": true,
          "internalType": "address",
          "name": "buyer",
          "type": "address"
        },
        {
          "indexed": true,
          "internalType": "address",
          "name": "farmer",
          "type": "address"
        },
        {
          "indexed": false,
          "internalType": "uint256",
          "name": "amount",
          "type": "uint256"
        }
      ],
      "name": "DealCreated",
      "type": "event"
    },
    {
      "anonymous": false,
      "inputs": [
        {
          "indexed": false,
          "internalType": "uint256",
          "name": "dealId",
          "type": "uint256"
        }
      ],
      "name": "DealRefunded",
      "type": "event"
    },
    {
      "inputs": [
        {
          "internalType": "uint256",
          "name": "dealId",
          "type": "uint256"
        }
      ],
      "name": "confirmDelivery",
      "outputs": [],
      "stateMutability": "nonpayable",
      "type": "function"
    },
    {
      "inputs": [
        {
          "internalType": "address payable",
          "name": "farmer",
          "type": "address"
        }
      ],
      "name": "createDeal",
      "outputs": [
        {
          "internalType": "uint256",
          "name": "",
          "type": "uint256"
        }
      ],
      "stateMutability": "payable",
      "type": "function"
    },
    {
      "inputs": [],
      "name": "dealCounter",
      "outputs": [
        {
          "internalType": "uint256",
          "name": "",
          "type": "uint256"
        }
      ],
      "stateMutability": "view",
      "type": "function"
    },
    {
      "inputs": [
        {
          "internalType": "uint256",
          "name": "",
          "type": "uint256"
        }
      ],
      "name": "deals",
      "outputs": [
        {
          "internalType": "address",
          "name": "buyer",
          "type": "address"
        },
        {
          "internalType": "address payable",
          "name": "farmer",
          "type": "address"
        },
        {
          "internalType": "uint256",
          "name": "amount",
          "type": "uint256"
        },
        {
          "internalType": "enum Escrow.Status",
          "name": "status",
          "type": "uint8"
        }
      ],
      "stateMutability": "view",
      "type": "function"
    },
    {
      "inputs": [
        {
          "internalType": "uint256",
          "name": "dealId",
          "type": "uint256"
        }
      ],
      "name": "getDeal",
      "outputs": [
        {
          "internalType": "address",
          "name": "buyer",
          "type": "address"
        },
        {
          "internalType": "address",
          "name": "farmer",
          "type": "address"
        },
        {
          "internalType": "uint256",
          "name": "amount",
          "type": "uint256"
        },
        {
          "internalType": "enum Escrow.Status",
          "name": "status",
          "type": "uint8"
        }
      ],
      "stateMutability": "view",
      "type": "function"
    },
    {
      "inputs": [
        {
          "internalType": "uint256",
          "name": "dealId",
          "type": "uint256"
        }
      ],
      "name": "refund",
      "outputs": [],
      "stateMutability": "nonpayable",
      "type": "function"
    }
  ],
  "bytecode": "0x6080604052348015600f57600080fd5b50610e298061001f6000396000f3fe6080604052600436106100555760003560e01c806303988f841461005a578063217328b61461009a578063278ecde1146100c557806340500932146100ee57806382fd5bac1461011e578063fd84cb971461015e575b600080fd5b34801561006657600080fd5b50610081600480360381019061007c919061097f565b610187565b6040516100919493929190610a94565b60405180910390f35b3480156100a657600080fd5b506100af610204565b6040516100bc9190610ad9565b60405180910390f35b3480156100d157600080fd5b506100ec60048036038101906100e7919061097f565b61020a565b005b61010860048036038101906101039190610b20565b610402565b6040516101159190610ad9565b60405180910390f35b34801561012a57600080fd5b506101456004803603810190610140919061097f565b61060f565b6040516101559493929190610b4d565b60405180910390f35b34801561016a57600080fd5b506101856004803603810190610180919061097f565b61074c565b005b60016020528060005260406000206000915090508060000160009054906101000a900473ffffffffffffffffffffffffffffffffffffffff16908060010160009054906101000a900473ffffffffffffffffffffffffffffffffffffffff16908060020154908060030160009054906101000a900460ff16905084565b60005481565b60006001600083815260200190815260200160002090506000600281111561023557610234610a1d565b5b8160030160009054906101000a900460ff16600281111561025957610258610a1d565b5b14610299576040517f08c379a000000000000000000000000000000000000000000000000000000000815260040161029090610bef565b60405180910390fd5b8060010160009054906101000a900473ffffffffffffffffffffffffffffffffffffffff1673ffffffffffffffffffffffffffffffffffffffff163373ffffffffffffffffffffffffffffffffffffffff161461032b576040517f08c379a000000000000000000000000000000000000000000000000000000000815260040161032290610c5b565b60405180910390fd5b60028160030160006101000a81548160ff0219169083600281111561035357610352610a1d565b5b02179055508060000160009054906101000a900473ffffffffffffffffffffffffffffffffffffffff1673ffffffffffffffffffffffffffffffffffffffff166108fc82600201549081150290604051600060405180830381858888f193505050501580156103c6573d6000803e3d6000fd5b507fd530c80e9cd545da84fc4400924631fdb0b7bfd9767c317a1fa55b4116c7be9b826040516103f69190610ad9565b60405180910390a15050565b6000803411610446576040517f08c379a000000000000000000000000000000000000000000000000000000000815260040161043d90610cc7565b60405180910390fd5b60008081548092919061045890610d16565b919050555060405180608001604052803373ffffffffffffffffffffffffffffffffffffffff1681526020018373ffffffffffffffffffffffffffffffffffffffff168152602001348152602001600060028111156104ba576104b9610a1d565b5b815250600160008054815260200190815260200160002060008201518160000160006101000a81548173ffffffffffffffffffffffffffffffffffffffff021916908373ffffffffffffffffffffffffffffffffffffffff16021790555060208201518160010160006101000a81548173ffffffffffffffffffffffffffffffffffffffff021916908373ffffffffffffffffffffffffffffffffffffffff1602179055506040820151816002015560608201518160030160006101000a81548160ff0219169083600281111561059457610593610a1d565b5b02179055509050508173ffffffffffffffffffffffffffffffffffffffff163373ffffffffffffffffffffffffffffffffffffffff167fa1d51600bc538356bf8fd92c062edd8551d8ebffa6933a434365fbb0b2b6eb48600054346040516105fd929190610d5e565b60405180910390a36000549050919050565b6000806000806000600160008781526020019081526020016000206040518060800160405290816000820160009054906101000a900473ffffffffffffffffffffffffffffffffffffffff1673ffffffffffffffffffffffffffffffffffffffff1673ffffffffffffffffffffffffffffffffffffffff1681526020016001820160009054906101000a900473ffffffffffffffffffffffffffffffffffffffff1673ffffffffffffffffffffffffffffffffffffffff1673ffffffffffffffffffffffffffffffffffffffff168152602001600282015481526020016003820160009054906101000a900460ff1660028111156107105761070f610a1d565b5b600281111561072257610721610a1d565b5b81525050905080600001518160200151826040015183606001519450945094509450509193509193565b60006001600083815260200190815260200160002090506000600281111561077757610776610a1d565b5b8160030160009054906101000a900460ff16600281111561079b5761079a610a1d565b5b146107db576040517f08c379a00000000000000000000000000000000000000000000000000000000081526004016107d290610bef565b60405180910390fd5b8060000160009054906101000a900473ffffffffffffffffffffffffffffffffffffffff1673ffffffffffffffffffffffffffffffffffffffff163373ffffffffffffffffffffffffffffffffffffffff161461086d576040517f08c379a000000000000000000000000000000000000000000000000000000000815260040161086490610dd3565b60405180910390fd5b60018160030160006101000a81548160ff0219169083600281111561089557610894610a1d565b5b02179055508060010160009054906101000a900473ffffffffffffffffffffffffffffffffffffffff1673ffffffffffffffffffffffffffffffffffffffff166108fc82600201549081150290604051600060405180830381858888f19350505050158015610908573d6000803e3d6000fd5b507fe70f0403e69c896bbcf61b8ca0224ab04d6de1ade440bc896049efe6fe4e0731826040516109389190610ad9565b60405180910390a15050565b600080fd5b6000819050919050565b61095c81610949565b811461096757600080fd5b50565b60008135905061097981610953565b92915050565b60006020828403121561099557610994610944565b5b60006109a38482850161096a565b91505092915050565b600073ffffffffffffffffffffffffffffffffffffffff82169050919050565b60006109d7826109ac565b9050919050565b6109e7816109cc565b82525050565b60006109f8826109ac565b9050919050565b610a08816109ed565b82525050565b610a1781610949565b82525050565b7f4e487b7100000000000000000000000000000000000000000000000000000000600052602160045260246000fd5b60038110610a5d57610a5c610a1d565b5b50565b6000819050610a6e82610a4c565b919050565b6000610a7e82610a60565b9050919050565b610a8e81610a73565b82525050565b6000608082019050610aa960008301876109de565b610ab660208301866109ff565b610ac36040830185610a0e565b610ad06060830184610a85565b95945050505050565b6000602082019050610aee6000830184610a0e565b92915050565b610afd816109ed565b8114610b0857600080fd5b50565b600081359050610b1a81610af4565b92915050565b600060208284031215610b3657610b35610944565b5b6000610b4484828501610b0b565b91505092915050565b6000608082019050610b6260008301876109de565b610b6f60208301866109de565b610b7c6040830185610a0e565b610b896060830184610a85565b95945050505050565b600082825260208201905092915050565b7f4465616c206973206e6f742070656e64696e6700000000000000000000000000600082015250565b6000610bd9601383610b92565b9150610be482610ba3565b602082019050919050565b60006020820190508181036000830152610c0881610bcc565b9050919050565b7f4f6e6c79206661726d65722063616e20726566756e6400000000000000000000600082015250565b6000610c45601683610b92565b9150610c5082610c0f565b602082019050919050565b60006020820190508181036000830152610c7481610c38565b9050919050565b7f4d7573742073656e64207061796d656e74000000000000000000000000000000600082015250565b6000610cb1601183610b92565b9150610cbc82610c7b565b602082019050919050565b60006020820190508181036000830152610ce081610ca4565b9050919050565b7f4e487b7100000000000000000000000000000000000000000000000000000000600052601160045260246000fd5b6000610d2182610949565b91507fffffffffffffffffffffffffffffffffffffffffffffffffffffffffffffffff8203610d5357610d52610ce7565b5b600182019050919050565b6000604082019050610d736000830185610a0e565b610d806020830184610a0e565b9392505050565b7f4f6e6c792062757965722063616e20636f6e6669726d00000000000000000000600082015250565b6000610dbd601683610b92565b9150610dc882610d87565b602082019050919050565b60006020820190508181036000830152610dec81610db0565b905091905056fea264697066735822122027ba6d8cdf3d576827a9ad218679c8fe1372f864f9ba819144103e2e79cfbe6d64736f6c634300081c0033",
  "linkReferences": {},
  "deployedLinkReferences": {}
}